{
  "contractName": "ContestApp",
  "abi": [
    {
      "constant": true,
      "inputs": [],
      "name": "contestCount",
      "outputs": [
        {
          "name": "",
          "type": "uint256"
        }
      ],
      "payable": false,
      "stateMutability": "view",
      "type": "function",
      "signature": "0x8d4fdb3b"
    },
    {
      "constant": true,
      "inputs": [
        {
          "name": "",
          "type": "uint256"
        }
      ],
      "name": "contests",
      "outputs": [
        {
          "name": "contest_organizer",
          "type": "address"
        },
        {
          "name": "id",
          "type": "uint256"
        },
        {
          "name": "stage",
          "type": "uint256"
        },
        {
          "name": "title",
          "type": "string"
        },
        {
          "name": "basis",
          "type": "string"
        },
        {
          "name": "deadline",
          "type": "string"
        },
        {
          "name": "resolution_deadline",
          "type": "string"
        },
        {
          "name": "award",
          "type": "string"
        },
        {
          "name": "contestantsCount",
          "type": "uint256"
        },
        {
          "name": "winner_id",
          "type": "uint256"
        }
      ],
      "payable": false,
      "stateMutability": "view",
      "type": "function",
      "signature": "0x9d7ed738"
    },
    {
      "anonymous": false,
      "inputs": [
        {
          "indexed": false,
          "name": "contest_organizer",
          "type": "address"
        },
        {
          "indexed": false,
          "name": "id",
          "type": "uint256"
        },
        {
          "indexed": false,
          "name": "stage",
          "type": "uint256"
        },
        {
          "indexed": false,
          "name": "title",
          "type": "string"
        },
        {
          "indexed": false,
          "name": "basis",
          "type": "string"
        },
        {
          "indexed": false,
          "name": "deadline",
          "type": "string"
        },
        {
          "indexed": false,
          "name": "resolution_deadline",
          "type": "string"
        },
        {
          "indexed": false,
          "name": "award",
          "type": "string"
        },
        {
          "indexed": false,
          "name": "contestantsCount",
          "type": "uint256"
        }
      ],
      "name": "contestCreated",
      "type": "event",
      "signature": "0x50492652b76030463c447b3c80c5f2c10add18c14920aa6a34766ffd383500d6"
    },
    {
      "anonymous": false,
      "inputs": [
        {
          "indexed": false,
          "name": "id",
          "type": "uint256"
        },
        {
          "indexed": false,
          "name": "stage",
          "type": "uint256"
        }
      ],
      "name": "stageUpdated",
      "type": "event",
      "signature": "0x15cec59adbc18e53cf1978c25d766f00755f4fc3f43a80d61c5586fef2d325aa"
    },
    {
      "anonymous": false,
      "inputs": [
        {
          "indexed": false,
          "name": "id",
          "type": "uint256"
        },
        {
          "indexed": false,
          "name": "stage",
          "type": "uint256"
        },
        {
          "indexed": false,
          "name": "winner_name",
          "type": "string"
        }
      ],
      "name": "winnerSet",
      "type": "event",
      "signature": "0xbfc474182b3ff1683e3bb931a4e5c385c180861c11fe7b959489d410508232ea"
    },
    {
      "anonymous": false,
      "inputs": [
        {
          "indexed": false,
          "name": "id",
          "type": "uint256"
        },
        {
          "indexed": false,
          "name": "contestant_name",
          "type": "string"
        }
      ],
      "name": "newContestant",
      "type": "event",
      "signature": "0x1723abdc0d7d45aa959c1a678783342e430856c045646f77dc83742414d99f45"
    },
    {
      "constant": true,
      "inputs": [
        {
          "name": "_id",
          "type": "uint256"
        },
        {
          "name": "_contestant_id",
          "type": "uint256"
        }
      ],
      "name": "get_contestant_name",
      "outputs": [
        {
          "name": "",
          "type": "string"
        }
      ],
      "payable": false,
      "stateMutability": "view",
      "type": "function",
      "signature": "0xa94fb4b0"
    },
    {
      "constant": false,
      "inputs": [
        {
          "name": "_title",
          "type": "string"
        },
        {
          "name": "_basis",
          "type": "string"
        },
        {
          "name": "_deadline",
          "type": "string"
        },
        {
          "name": "_resolution_deadline",
          "type": "string"
        },
        {
          "name": "_award",
          "type": "string"
        }
      ],
      "name": "createContest",
      "outputs": [],
      "payable": false,
      "stateMutability": "nonpayable",
      "type": "function",
      "signature": "0x0d68899a"
    },
    {
      "constant": false,
      "inputs": [
        {
          "name": "_id",
          "type": "uint256"
        }
      ],
      "name": "setContestOngioing",
      "outputs": [],
      "payable": false,
      "stateMutability": "nonpayable",
      "type": "function",
      "signature": "0x4fce8823"
    },
    {
      "constant": false,
      "inputs": [
        {
          "name": "_id",
          "type": "uint256"
        }
      ],
      "name": "setContestJudgeStage",
      "outputs": [],
      "payable": false,
      "stateMutability": "nonpayable",
      "type": "function",
      "signature": "0xde572d9f"
    },
    {
      "constant": false,
      "inputs": [
        {
          "name": "_id",
          "type": "uint256"
        },
        {
          "name": "_winner_id",
          "type": "uint256"
        }
      ],
      "name": "setWinner",
      "outputs": [],
      "payable": false,
      "stateMutability": "nonpayable",
      "type": "function",
      "signature": "0x68cbce31"
    },
    {
      "constant": false,
      "inputs": [
        {
          "name": "_id",
          "type": "uint256"
        },
        {
          "name": "_name",
          "type": "string"
        }
      ],
      "name": "participate",
      "outputs": [],
      "payable": false,
      "stateMutability": "nonpayable",
      "type": "function",
      "signature": "0x3be7d464"
    }
  ],
  "bytecode": "0x60806040526000805534801561001457600080fd5b50612251806100246000396000f3fe60806040526004361061008d5763ffffffff7c01000000000000000000000000000000000000000000000000000000006000350416630d68899a81146100925780633be7d464146103635780634fce88231461041d57806368cbce31146104475780638d4fdb3b146104775780639d7ed7381461049e578063a94fb4b01461070d578063de572d9f146107b2575b600080fd5b34801561009e57600080fd5b50610361600480360360a08110156100b557600080fd5b8101906020810181356401000000008111156100d057600080fd5b8201836020820111156100e257600080fd5b8035906020019184600183028401116401000000008311171561010457600080fd5b91908080601f016020809104026020016040519081016040528093929190818152602001838380828437600092019190915250929594936020810193503591505064010000000081111561015757600080fd5b82018360208201111561016957600080fd5b8035906020019184600183028401116401000000008311171561018b57600080fd5b91908080601f01602080910402602001604051908101604052809392919081815260200183838082843760009201919091525092959493602081019350359150506401000000008111156101de57600080fd5b8201836020820111156101f057600080fd5b8035906020019184600183028401116401000000008311171561021257600080fd5b91908080601f016020809104026020016040519081016040528093929190818152602001838380828437600092019190915250929594936020810193503591505064010000000081111561026557600080fd5b82018360208201111561027757600080fd5b8035906020019184600183028401116401000000008311171561029957600080fd5b91908080601f01602080910402602001604051908101604052809392919081815260200183838082843760009201919091525092959493602081019350359150506401000000008111156102ec57600080fd5b8201836020820111156102fe57600080fd5b8035906020019184600183028401116401000000008311171561032057600080fd5b91908080601f0160208091040260200160405190810160405280939291908181526020018383808284376000920191909152509295506107dc945050505050565b005b34801561036f57600080fd5b506103616004803603604081101561038657600080fd5b813591908101906040810160208201356401000000008111156103a857600080fd5b8201836020820111156103ba57600080fd5b803590602001918460018302840111640100000000831117156103dc57600080fd5b91908080601f016020809104026020016040519081016040528093929190818152602001838380828437600092019190915250929550610b82945050505050565b34801561042957600080fd5b506103616004803603602081101561044057600080fd5b5035610e4f565b34801561045357600080fd5b506103616004803603604081101561046a57600080fd5b50803590602001356113c1565b34801561048357600080fd5b5061048c6117f5565b60408051918252519081900360200190f35b3480156104aa57600080fd5b506104c8600480360360208110156104c157600080fd5b50356117fb565b604051808b600160a060020a0316600160a060020a031681526020018a8152602001898152602001806020018060200180602001806020018060200188815260200187815260200186810386528d818151815260200191508051906020019080838360005b8381101561054557818101518382015260200161052d565b50505050905090810190601f1680156105725780820380516001836020036101000a031916815260200191505b5086810385528c5181528c516020918201918e019080838360005b838110156105a557818101518382015260200161058d565b50505050905090810190601f1680156105d25780820380516001836020036101000a031916815260200191505b5086810384528b5181528b516020918201918d019080838360005b838110156106055781810151838201526020016105ed565b50505050905090810190601f1680156106325780820380516001836020036101000a031916815260200191505b5086810383528a5181528a516020918201918c019080838360005b8381101561066557818101518382015260200161064d565b50505050905090810190601f1680156106925780820380516001836020036101000a031916815260200191505b5086810382528951815289516020918201918b019080838360005b838110156106c55781810151838201526020016106ad565b50505050905090810190601f1680156106f25780820380516001836020036101000a031916815260200191505b509f5050505050505050505050505050505060405180910390f35b34801561071957600080fd5b5061073d6004803603604081101561073057600080fd5b5080359060200135611b02565b6040805160208082528351818301528351919283929083019185019080838360005b8381101561077757818101518382015260200161075f565b50505050905090810190601f1680156107a45780820380516001836020036101000a031916815260200191505b509250505060405180910390f35b3480156107be57600080fd5b50610361600480360360208110156107d557600080fd5b5035611c01565b60008054600190810180835560408051610140810182523381526020808201848152828401878152606084018d8152608085018d905260a085018c905260c085018b905260e085018a9052610100850189905261012085018990529588528683529390962082518154600160a060020a031916600160a060020a03909116178155955194860194909455905160028501559051805191939261088692600385019290910190612084565b50608082015180516108a2916004840191602090910190612084565b5060a082015180516108be916005840191602090910190612084565b5060c082015180516108da916006840191602090910190612084565b5060e082015180516108f6916007840191602090910190612084565b50610100820151816008015561012082015181600901559050507f50492652b76030463c447b3c80c5f2c10add18c14920aa6a34766ffd383500d633600054600088888888886000604051808a600160a060020a0316600160a060020a03168152602001898152602001888152602001806020018060200180602001806020018060200187815260200186810386528c818151815260200191508051906020019080838360005b838110156109b557818101518382015260200161099d565b50505050905090810190601f1680156109e25780820380516001836020036101000a031916815260200191505b5086810385528b5181528b516020918201918d019080838360005b83811015610a155781810151838201526020016109fd565b50505050905090810190601f168015610a425780820380516001836020036101000a031916815260200191505b5086810384528a5181528a516020918201918c019080838360005b83811015610a75578181015183820152602001610a5d565b50505050905090810190601f168015610aa25780820380516001836020036101000a031916815260200191505b5086810383528951815289516020918201918b019080838360005b83811015610ad5578181015183820152602001610abd565b50505050905090810190601f168015610b025780820380516001836020036101000a031916815260200191505b5086810382528851815288516020918201918a019080838360005b83811015610b35578181015183820152602001610b1d565b50505050905090810190601f168015610b625780820380516001836020036101000a031916815260200191505b509e50505050505050505050505050505060405180910390a15050505050565b60008281526001602081905260409091206002810154909114610bef576040805160e560020a62461bcd02815260206004820152601d60248201527f54686520636f6e746573742068617320746f206265206f6e676f696e67000000604482015290519081900360640190fd5b60088101805460019081019182905560408051608081018252838152336020808301918252828401888152600060608501819052968752600a88018252939095208251815590519381018054600160a060020a031916600160a060020a0390951694909417909355905180519193610c6f92600285019290910190612084565b50606091909101516003918201805491151560ff19909216919091179055600084815260016020819052604090912083548154600160a060020a031916600160a060020a03909116178155838201548183015560028085015481830155848401805486959394610cf19486019390821615610100026000190190911604612102565b5060048201816004019080546001816001161561010002031660029004610d19929190612102565b5060058201816005019080546001816001161561010002031660029004610d41929190612102565b5060068201816006019080546001816001161561010002031660029004610d69929190612102565b5060078201816007019080546001816001161561010002031660029004610d91929190612102565b5060088201548160080155600982015481600901559050507f1723abdc0d7d45aa959c1a678783342e430856c045646f77dc83742414d99f4583836040518083815260200180602001828103825283818151815260200191508051906020019080838360005b83811015610e0f578181015183820152602001610df7565b50505050905090810190601f168015610e3c5780820380516001836020036101000a031916815260200191505b50935050505060405180910390a1505050565b610e57612177565b6000828152600160208181526040928390208351610140810185528154600160a060020a0316815281840154818401526002808301548287015260038301805487516101009782161597909702600019011691909104601f8101859004850286018501909652858552909491936060860193909290830182828015610f1d5780601f10610ef257610100808354040283529160200191610f1d565b820191906000526020600020905b815481529060010190602001808311610f0057829003601f168201915b505050918352505060048201805460408051602060026001851615610100026000190190941693909304601f8101849004840282018401909252818152938201939291830182828015610fb15780601f10610f8657610100808354040283529160200191610fb1565b820191906000526020600020905b815481529060010190602001808311610f9457829003601f168201915b505050918352505060058201805460408051602060026001851615610100026000190190941693909304601f81018490048402820184019092528181529382019392918301828280156110455780601f1061101a57610100808354040283529160200191611045565b820191906000526020600020905b81548152906001019060200180831161102857829003601f168201915b505050918352505060068201805460408051602060026001851615610100026000190190941693909304601f81018490048402820184019092528181529382019392918301828280156110d95780601f106110ae576101008083540402835291602001916110d9565b820191906000526020600020905b8154815290600101906020018083116110bc57829003601f168201915b505050918352505060078201805460408051602060026001851615610100026000190190941693909304601f810184900484028201840190925281815293820193929183018282801561116d5780601f106111425761010080835404028352916020019161116d565b820191906000526020600020905b81548152906001019060200180831161115057829003601f168201915b5050509183525050600882015460208201526009909101546040909101528051909150600160a060020a03163314611215576040805160e560020a62461bcd02815260206004820152602360248201527f43616c6c6572206973206e6f742074686520636f6e74657374206f7267616e6960448201527f7a65720000000000000000000000000000000000000000000000000000000000606482015290519081900360840190fd5b604081015115611295576040805160e560020a62461bcd02815260206004820152602a60248201527f54686520636f6e746573742068617320746f20626520696e2074686520696e6960448201527f7469616c20737461676500000000000000000000000000000000000000000000606482015290519081900360840190fd5b600160408281018281526000858152602084815292902084518154600160a060020a031916600160a060020a039091161781558285015193810193909355516002830155606083015180518493926112f4926003850192910190612084565b5060808201518051611310916004840191602090910190612084565b5060a0820151805161132c916005840191602090910190612084565b5060c08201518051611348916006840191602090910190612084565b5060e08201518051611364916007840191602090910190612084565b506101008201516008820155610120909101516009909101556040808201518151848152602081019190915281517f15cec59adbc18e53cf1978c25d766f00755f4fc3f43a80d61c5586fef2d325aa929181900390910190a15050565b60008281526001602052604090206113d76121d4565b6000838152600a83016020908152604091829020825160808101845281548152600180830154600160a060020a0316828501526002808401805487516101009482161594909402600019011691909104601f810186900486028301860187528083529295939493860193919290918301828280156114965780601f1061146b57610100808354040283529160200191611496565b820191906000526020600020905b81548152906001019060200180831161147957829003601f168201915b50505091835250506003919091015460ff1615156020909101528254909150600160a060020a0316331461153a576040805160e560020a62461bcd02815260206004820152602360248201527f43616c6c6572206973206e6f742074686520636f6e74657374206f7267616e6960448201527f7a65720000000000000000000000000000000000000000000000000000000000606482015290519081900360840190fd5b60028083015414611595576040805160e560020a62461bcd02815260206004820152601d60248201527f54686520636f6e746573742068617320746f206265206f6e676f696e67000000604482015290519081900360640190fd5b6009820183905560036002808401919091556001606083018190526000858152600a8501602090815260409182902085518155818601519381018054600160a060020a031916600160a060020a0390951694909417909355908401518051859461160493908501920190612084565b50606091909101516003918201805491151560ff19909216919091179055600085815260016020819052604090912084548154600160a060020a031916600160a060020a039091161781558482015481830155600280860154818301558584018054879593946116869486019390821615610100026000190190911604612102565b50600482018160040190805460018160011615610100020316600290046116ae929190612102565b50600582018160050190805460018160011615610100020316600290046116d6929190612102565b50600682018160060190805460018160011615610100020316600290046116fe929190612102565b5060078201816007019080546001816001161561010002031660029004611726929190612102565b5060088201548160080155600982015481600901559050507fbfc474182b3ff1683e3bb931a4e5c385c180861c11fe7b959489d410508232ea84836002015483604001516040518084815260200183815260200180602001828103825283818151815260200191508051906020019080838360005b838110156117b357818101518382015260200161179b565b50505050905090810190601f1680156117e05780820380516001836020036101000a031916815260200191505b5094505050505060405180910390a150505050565b60005481565b60016020818152600092835260409283902080548184015460028084015460038501805489516101009982161599909902600019011692909204601f8101879004870288018701909852878752600160a060020a0390931696919592949091908301828280156118ac5780601f10611881576101008083540402835291602001916118ac565b820191906000526020600020905b81548152906001019060200180831161188f57829003601f168201915b5050505060048301805460408051602060026001851615610100026000190190941693909304601f810184900484028201840190925281815294959493509083018282801561193c5780601f106119115761010080835404028352916020019161193c565b820191906000526020600020905b81548152906001019060200180831161191f57829003601f168201915b5050505060058301805460408051602060026001851615610100026000190190941693909304601f81018490048402820184019092528181529495949350908301828280156119cc5780601f106119a1576101008083540402835291602001916119cc565b820191906000526020600020905b8154815290600101906020018083116119af57829003601f168201915b5050505060068301805460408051602060026001851615610100026000190190941693909304601f8101849004840282018401909252818152949594935090830182828015611a5c5780601f10611a3157610100808354040283529160200191611a5c565b820191906000526020600020905b815481529060010190602001808311611a3f57829003601f168201915b5050505060078301805460408051602060026001851615610100026000190190941693909304601f8101849004840282018401909252818152949594935090830182828015611aec5780601f10611ac157610100808354040283529160200191611aec565b820191906000526020600020905b815481529060010190602001808311611acf57829003601f168201915b505050505090806008015490806009015490508a565b6000828152600160205260409020606090611b1b6121d4565b6000848152600a83016020908152604091829020825160808101845281548152600180830154600160a060020a0316828501526002808401805487516101009482161594909402600019011691909104601f81018690048602830186018752808352929593949386019391929091830182828015611bda5780601f10611baf57610100808354040283529160200191611bda565b820191906000526020600020905b815481529060010190602001808311611bbd57829003601f168201915b50505091835250506003919091015460ff1615156020909101526040015195945050505050565b611c09612177565b6000828152600160208181526040928390208351610140810185528154600160a060020a0316815281840154818401526002808301548287015260038301805487516101009782161597909702600019011691909104601f8101859004850286018501909652858552909491936060860193909290830182828015611ccf5780601f10611ca457610100808354040283529160200191611ccf565b820191906000526020600020905b815481529060010190602001808311611cb257829003601f168201915b505050918352505060048201805460408051602060026001851615610100026000190190941693909304601f8101849004840282018401909252818152938201939291830182828015611d635780601f10611d3857610100808354040283529160200191611d63565b820191906000526020600020905b815481529060010190602001808311611d4657829003601f168201915b505050918352505060058201805460408051602060026001851615610100026000190190941693909304601f8101849004840282018401909252818152938201939291830182828015611df75780601f10611dcc57610100808354040283529160200191611df7565b820191906000526020600020905b815481529060010190602001808311611dda57829003601f168201915b505050918352505060068201805460408051602060026001851615610100026000190190941693909304601f8101849004840282018401909252818152938201939291830182828015611e8b5780601f10611e6057610100808354040283529160200191611e8b565b820191906000526020600020905b815481529060010190602001808311611e6e57829003601f168201915b505050918352505060078201805460408051602060026001851615610100026000190190941693909304601f8101849004840282018401909252818152938201939291830182828015611f1f5780601f10611ef457610100808354040283529160200191611f1f565b820191906000526020600020905b815481529060010190602001808311611f0257829003601f168201915b5050509183525050600882015460208201526009909101546040909101528051909150600160a060020a03163314611fc7576040805160e560020a62461bcd02815260206004820152602360248201527f43616c6c6572206973206e6f742074686520636f6e74657374206f7267616e6960448201527f7a65720000000000000000000000000000000000000000000000000000000000606482015290519081900360840190fd5b6040810151600114612023576040805160e560020a62461bcd02815260206004820152601d60248201527f54686520636f6e746573742068617320746f206265206f6e676f696e67000000604482015290519081900360640190fd5b600260408281018281526000858152600160208181529390912085518154600160a060020a031916600160a060020a039091161781558386015191810191909155905192810192909255606083015180518493926112f49260038501929101905b828054600181600116156101000203166002900490600052602060002090601f016020900481019282601f106120c557805160ff19168380011785556120f2565b828001600101855582156120f2579182015b828111156120f25782518255916020019190600101906120d7565b506120fe929150612208565b5090565b828054600181600116156101000203166002900490600052602060002090601f016020900481019282601f1061213b57805485556120f2565b828001600101855582156120f257600052602060002091601f016020900482015b828111156120f257825482559160010191906001019061215c565b610140604051908101604052806000600160a060020a031681526020016000815260200160008152602001606081526020016060815260200160608152602001606081526020016060815260200160008152602001600081525090565b608060405190810160405280600081526020016000600160a060020a03168152602001606081526020016000151581525090565b61222291905b808211156120fe576000815560010161220e565b9056fea165627a7a72305820039eb9149d52a0c536e9baf22e1ef7de76bac204d94ee31223e42df40ce1aeb70029",
  "source": "pragma solidity ^0.5.0;\n\ncontract ContestApp {\n    uint public contestCount = 0;\n\n    struct Contestant{\n        uint id;\n        address contestant_address;\n        string name;\n        bool is_winner;\n    }\n\n    struct Contest{\n        address contest_organizer;\n        uint id;\n        uint stage; //0: Contest to be set, 1: Ongoing, 2: Resolution statge, 3: Finished\n        string title;\n        string basis;\n        string deadline;\n        string resolution_deadline;\n        string award;\n        uint contestantsCount;\n        uint winner_id;\n        mapping(uint => Contestant) contestants;\n    }\n\n    mapping(uint => Contest) public contests;\n\n    event contestCreated(\n        address contest_organizer,\n        uint id,\n        uint stage, //0: Contest to be set, 1: Ongoing, 2: Judge statge, 3: Finished\n        string title,\n        string basis,\n        string deadline,\n        string resolution_deadline,\n        string award,\n        uint contestantsCount\n    );\n\n    event stageUpdated(\n        uint id,\n        uint stage\n    );\n\n    event winnerSet(\n        uint id,\n        uint stage,\n        string winner_name\n\n    );\n\n    event newContestant(\n        uint id,\n        string contestant_name\n    );\n\n    function get_contestant_name(uint _id, uint _contestant_id) public view returns(string memory) {\n        Contest storage _contest = contests[_id];\n        Contestant memory _contestant = _contest.contestants[_contestant_id];\n        return _contestant.name;\n    }\n\n    function createContest(string memory _title, string memory _basis, string memory _deadline, string memory _resolution_deadline, string memory _award) public {\n        contestCount ++;\n        contests[contestCount] = Contest(msg.sender, contestCount, 0, _title, _basis, _deadline, _resolution_deadline, _award, 0, 0);\n        emit contestCreated(msg.sender, contestCount, 0, _title, _basis, _deadline, _resolution_deadline, _award, 0);\n    }\n\n    function setContestOngioing(uint _id) public {\n        Contest memory _contest = contests[_id];\n        require(msg.sender == _contest.contest_organizer, \"Caller is not the contest organizer\");\n        require(_contest.stage == 0, \"The contest has to be in the initial stage\");\n        _contest.stage = 1;\n        contests[_id] = _contest;\n        emit stageUpdated(_id, _contest.stage);\n    }\n\n    function setContestJudgeStage(uint _id) public {\n        Contest memory _contest = contests[_id];\n        require(msg.sender == _contest.contest_organizer, \"Caller is not the contest organizer\");\n        require(_contest.stage == 1, \"The contest has to be ongoing\");\n        _contest.stage = 2;\n        contests[_id] = _contest;\n        emit stageUpdated(_id, _contest.stage);\n    }\n\n    function setWinner(uint _id, uint _winner_id) public {\n        Contest storage _contest = contests[_id];\n        Contestant memory _winner_contestant = _contest.contestants[_winner_id];\n        require(msg.sender == _contest.contest_organizer, \"Caller is not the contest organizer\");\n        require(_contest.stage == 2, \"The contest has to be ongoing\");\n        _contest.winner_id = _winner_id;\n        _contest.stage = 3;\n        _winner_contestant.is_winner = true;\n        _contest.contestants[_winner_id] = _winner_contestant;\n        contests[_id] = _contest;\n        emit winnerSet(_id, _contest.stage, _winner_contestant.name);\n    }\n\n    function participate(uint _id, string memory _name) public {\n        Contest storage _contest = contests[_id];\n        require(_contest.stage == 1, \"The contest has to be ongoing\");\n        _contest.contestantsCount ++;\n        _contest.contestants[_contest.contestantsCount] = Contestant(_contest.contestantsCount, msg.sender, _name, false);\n        contests[_id] = _contest;\n        emit newContestant(_id, _name);\n    }\n}",
  "sourcePath": "/Users/marvidalsegura/Desktop/DS-Project/contracts/ContestApp.sol",
  "compiler": {
    "name": "solc",
    "version": "0.5.0+commit.1d4f565a.Emscripten.clang"
  },
  "schemaVersion": "3.0.1",
  "updatedAt": "2020-05-26T00:23:42.064Z",
  "devdoc": {
    "methods": {}
  },
  "userdoc": {
    "methods": {}
  }
}