{
  "contractName": "ContestApp",
  "abi": [
    {
      "constant": true,
      "inputs": [],
      "name": "contestCount",
      "outputs": [
        {
          "name": "",
          "type": "uint256"
        }
      ],
      "payable": false,
      "stateMutability": "view",
      "type": "function"
    },
    {
      "constant": true,
      "inputs": [
        {
          "name": "",
          "type": "uint256"
        }
      ],
      "name": "contests",
      "outputs": [
        {
          "name": "contest_organizer",
          "type": "address"
        },
        {
          "name": "id",
          "type": "uint256"
        },
        {
          "name": "stage",
          "type": "uint256"
        },
        {
          "name": "basis",
          "type": "string"
        },
        {
          "name": "deadline",
          "type": "string"
        },
        {
          "name": "resolution_deadline",
          "type": "string"
        },
        {
          "name": "award",
          "type": "string"
        },
        {
          "name": "contestantsCount",
          "type": "uint256"
        },
        {
          "name": "winner_id",
          "type": "uint256"
        }
      ],
      "payable": false,
      "stateMutability": "view",
      "type": "function"
    },
    {
      "anonymous": false,
      "inputs": [
        {
          "indexed": false,
          "name": "contest_organizer",
          "type": "address"
        },
        {
          "indexed": false,
          "name": "id",
          "type": "uint256"
        },
        {
          "indexed": false,
          "name": "stage",
          "type": "uint256"
        },
        {
          "indexed": false,
          "name": "basis",
          "type": "string"
        },
        {
          "indexed": false,
          "name": "deadline",
          "type": "string"
        },
        {
          "indexed": false,
          "name": "resolution_deadline",
          "type": "string"
        },
        {
          "indexed": false,
          "name": "award",
          "type": "string"
        },
        {
          "indexed": false,
          "name": "contestantsCount",
          "type": "uint256"
        }
      ],
      "name": "ContestCreated",
      "type": "event"
    },
    {
      "anonymous": false,
      "inputs": [
        {
          "indexed": false,
          "name": "id",
          "type": "uint256"
        },
        {
          "indexed": false,
          "name": "stage",
          "type": "uint256"
        }
      ],
      "name": "stageUpdated",
      "type": "event"
    },
    {
      "anonymous": false,
      "inputs": [
        {
          "indexed": false,
          "name": "id",
          "type": "uint256"
        },
        {
          "indexed": false,
          "name": "stage",
          "type": "uint256"
        },
        {
          "indexed": false,
          "name": "winner_name",
          "type": "string"
        }
      ],
      "name": "winnerSet",
      "type": "event"
    },
    {
      "anonymous": false,
      "inputs": [
        {
          "indexed": false,
          "name": "id",
          "type": "uint256"
        },
        {
          "indexed": false,
          "name": "contestant_name",
          "type": "string"
        }
      ],
      "name": "newContestant",
      "type": "event"
    },
    {
      "constant": false,
      "inputs": [
        {
          "name": "_basis",
          "type": "string"
        },
        {
          "name": "_deadline",
          "type": "string"
        },
        {
          "name": "_resolution_deadline",
          "type": "string"
        },
        {
          "name": "_award",
          "type": "string"
        }
      ],
      "name": "createContest",
      "outputs": [],
      "payable": false,
      "stateMutability": "nonpayable",
      "type": "function"
    },
    {
      "constant": false,
      "inputs": [
        {
          "name": "_id",
          "type": "uint256"
        }
      ],
      "name": "setContestOngioing",
      "outputs": [],
      "payable": false,
      "stateMutability": "nonpayable",
      "type": "function"
    },
    {
      "constant": false,
      "inputs": [
        {
          "name": "_id",
          "type": "uint256"
        }
      ],
      "name": "setContestJudgeStage",
      "outputs": [],
      "payable": false,
      "stateMutability": "nonpayable",
      "type": "function"
    },
    {
      "constant": false,
      "inputs": [
        {
          "name": "_id",
          "type": "uint256"
        },
        {
          "name": "_winner_id",
          "type": "uint256"
        }
      ],
      "name": "setWinner",
      "outputs": [],
      "payable": false,
      "stateMutability": "nonpayable",
      "type": "function"
    },
    {
      "constant": false,
      "inputs": [
        {
          "name": "_id",
          "type": "uint256"
        },
        {
          "name": "_name",
          "type": "string"
        }
      ],
      "name": "participate",
      "outputs": [],
      "payable": false,
      "stateMutability": "nonpayable",
      "type": "function"
    }
  ],
  "bytecode": "0x60806040526000805534801561001457600080fd5b50611d22806100246000396000f3fe6080604052600436106100825763ffffffff7c01000000000000000000000000000000000000000000000000000000006000350416633be7d46481146100875780634fce88231461014357806368cbce311461016d5780638d4fdb3b1461019d5780639d7ed738146101c4578063abea6a49146103cd578063de572d9f14610615575b600080fd5b34801561009357600080fd5b50610141600480360360408110156100aa57600080fd5b813591908101906040810160208201356401000000008111156100cc57600080fd5b8201836020820111156100de57600080fd5b8035906020019184600183028401116401000000008311171561010057600080fd5b91908080601f01602080910402602001604051908101604052809392919081815260200183838082843760009201919091525092955061063f945050505050565b005b34801561014f57600080fd5b506101416004803603602081101561016657600080fd5b50356108e4565b34801561017957600080fd5b506101416004803603604081101561019057600080fd5b5080359060200135610da5565b3480156101a957600080fd5b506101b26111b1565b60408051918252519081900360200190f35b3480156101d057600080fd5b506101ee600480360360208110156101e757600080fd5b50356111b7565b604051808a600160a060020a0316600160a060020a031681526020018981526020018881526020018060200180602001806020018060200187815260200186815260200185810385528b818151815260200191508051906020019080838360005b8381101561026757818101518382015260200161024f565b50505050905090810190601f1680156102945780820380516001836020036101000a031916815260200191505b5085810384528a5181528a516020918201918c019080838360005b838110156102c75781810151838201526020016102af565b50505050905090810190601f1680156102f45780820380516001836020036101000a031916815260200191505b5085810383528951815289516020918201918b019080838360005b8381101561032757818101518382015260200161030f565b50505050905090810190601f1680156103545780820380516001836020036101000a031916815260200191505b5085810382528851815288516020918201918a019080838360005b8381101561038757818101518382015260200161036f565b50505050905090810190601f1680156103b45780820380516001836020036101000a031916815260200191505b509d505050505050505050505050505060405180910390f35b3480156103d957600080fd5b50610141600480360360808110156103f057600080fd5b81019060208101813564010000000081111561040b57600080fd5b82018360208201111561041d57600080fd5b8035906020019184600183028401116401000000008311171561043f57600080fd5b91908080601f016020809104026020016040519081016040528093929190818152602001838380828437600092019190915250929594936020810193503591505064010000000081111561049257600080fd5b8201836020820111156104a457600080fd5b803590602001918460018302840111640100000000831117156104c657600080fd5b91908080601f016020809104026020016040519081016040528093929190818152602001838380828437600092019190915250929594936020810193503591505064010000000081111561051957600080fd5b82018360208201111561052b57600080fd5b8035906020019184600183028401116401000000008311171561054d57600080fd5b91908080601f01602080910402602001604051908101604052809392919081815260200183838082843760009201919091525092959493602081019350359150506401000000008111156105a057600080fd5b8201836020820111156105b257600080fd5b803590602001918460018302840111640100000000831117156105d457600080fd5b91908080601f01602080910402602001604051908101604052809392919081815260200183838082843760009201919091525092955061142e945050505050565b34801561062157600080fd5b506101416004803603602081101561063857600080fd5b5035611747565b600082815260016020819052604090912060028101549091146106ac576040805160e560020a62461bcd02815260206004820152601d60248201527f54686520636f6e746573742068617320746f206265206f6e676f696e67000000604482015290519081900360640190fd5b60078101805460019081019182905560408051608081018252838152336020808301918252828401888152600060608501819052968752600988018252939095208251815590519381018054600160a060020a031916600160a060020a039095169490941790935590518051919361072c92600285019290910190611b5c565b50606091909101516003918201805491151560ff19909216919091179055600084815260016020819052604090912083548154600160a060020a031916600160a060020a039091161781558382015481830155600280850154818301558484018054869593946107ae9486019390821615610100026000190190911604611bda565b50600482018160040190805460018160011615610100020316600290046107d6929190611bda565b50600582018160050190805460018160011615610100020316600290046107fe929190611bda565b5060068201816006019080546001816001161561010002031660029004610826929190611bda565b5060078201548160070155600882015481600801559050507f1723abdc0d7d45aa959c1a678783342e430856c045646f77dc83742414d99f4583836040518083815260200180602001828103825283818151815260200191508051906020019080838360005b838110156108a457818101518382015260200161088c565b50505050905090810190601f1680156108d15780820380516001836020036101000a031916815260200191505b50935050505060405180910390a1505050565b6108ec611c4f565b6000828152600160208181526040928390208351610120810185528154600160a060020a0316815281840154818401526002808301548287015260038301805487516101009782161597909702600019011691909104601f81018590048502860185019096528585529094919360608601939092908301828280156109b25780601f10610987576101008083540402835291602001916109b2565b820191906000526020600020905b81548152906001019060200180831161099557829003601f168201915b505050918352505060048201805460408051602060026001851615610100026000190190941693909304601f8101849004840282018401909252818152938201939291830182828015610a465780601f10610a1b57610100808354040283529160200191610a46565b820191906000526020600020905b815481529060010190602001808311610a2957829003601f168201915b505050918352505060058201805460408051602060026001851615610100026000190190941693909304601f8101849004840282018401909252818152938201939291830182828015610ada5780601f10610aaf57610100808354040283529160200191610ada565b820191906000526020600020905b815481529060010190602001808311610abd57829003601f168201915b505050918352505060068201805460408051602060026001851615610100026000190190941693909304601f8101849004840282018401909252818152938201939291830182828015610b6e5780601f10610b4357610100808354040283529160200191610b6e565b820191906000526020600020905b815481529060010190602001808311610b5157829003601f168201915b5050509183525050600782015460208201526008909101546040909101528051909150600160a060020a03163314610c16576040805160e560020a62461bcd02815260206004820152602360248201527f43616c6c6572206973206e6f742074686520636f6e74657374206f7267616e6960448201527f7a65720000000000000000000000000000000000000000000000000000000000606482015290519081900360840190fd5b604081015115610c96576040805160e560020a62461bcd02815260206004820152602a60248201527f54686520636f6e746573742068617320746f20626520696e2074686520696e6960448201527f7469616c20737461676500000000000000000000000000000000000000000000606482015290519081900360840190fd5b600160408281018281526000858152602084815292902084518154600160a060020a031916600160a060020a03909116178155828501519381019390935551600283015560608301518051849392610cf5926003850192910190611b5c565b5060808201518051610d11916004840191602090910190611b5c565b5060a08201518051610d2d916005840191602090910190611b5c565b5060c08201518051610d49916006840191602090910190611b5c565b5060e08201516007820155610100909101516008909101556040808201518151848152602081019190915281517f15cec59adbc18e53cf1978c25d766f00755f4fc3f43a80d61c5586fef2d325aa929181900390910190a15050565b6000828152600160205260409020610dbb611ca5565b6000838152600983016020908152604091829020825160808101845281548152600180830154600160a060020a0316828501526002808401805487516101009482161594909402600019011691909104601f81018690048602830186018752808352929593949386019391929091830182828015610e7a5780601f10610e4f57610100808354040283529160200191610e7a565b820191906000526020600020905b815481529060010190602001808311610e5d57829003601f168201915b50505091835250506003919091015460ff1615156020909101528254909150600160a060020a03163314610f1e576040805160e560020a62461bcd02815260206004820152602360248201527f43616c6c6572206973206e6f742074686520636f6e74657374206f7267616e6960448201527f7a65720000000000000000000000000000000000000000000000000000000000606482015290519081900360840190fd5b60028083015414610f79576040805160e560020a62461bcd02815260206004820152601d60248201527f54686520636f6e746573742068617320746f206265206f6e676f696e67000000604482015290519081900360640190fd5b600882018390556003600280840191909155600160608301819052600085815260098501602090815260409182902085518155818601519381018054600160a060020a031916600160a060020a03909516949094179093559084015180518594610fe893908501920190611b5c565b50606091909101516003918201805491151560ff19909216919091179055600085815260016020819052604090912084548154600160a060020a031916600160a060020a0390911617815584820154818301556002808601548183015585840180548795939461106a9486019390821615610100026000190190911604611bda565b5060048201816004019080546001816001161561010002031660029004611092929190611bda565b50600582018160050190805460018160011615610100020316600290046110ba929190611bda565b50600682018160060190805460018160011615610100020316600290046110e2929190611bda565b5060078201548160070155600882015481600801559050507fbfc474182b3ff1683e3bb931a4e5c385c180861c11fe7b959489d410508232ea84836002015483604001516040518084815260200183815260200180602001828103825283818151815260200191508051906020019080838360005b8381101561116f578181015183820152602001611157565b50505050905090810190601f16801561119c5780820380516001836020036101000a031916815260200191505b5094505050505060405180910390a150505050565b60005481565b60016020818152600092835260409283902080548184015460028084015460038501805489516101009982161599909902600019011692909204601f8101879004870288018701909852878752600160a060020a0390931696919592949091908301828280156112685780601f1061123d57610100808354040283529160200191611268565b820191906000526020600020905b81548152906001019060200180831161124b57829003601f168201915b5050505060048301805460408051602060026001851615610100026000190190941693909304601f81018490048402820184019092528181529495949350908301828280156112f85780601f106112cd576101008083540402835291602001916112f8565b820191906000526020600020905b8154815290600101906020018083116112db57829003601f168201915b5050505060058301805460408051602060026001851615610100026000190190941693909304601f81018490048402820184019092528181529495949350908301828280156113885780601f1061135d57610100808354040283529160200191611388565b820191906000526020600020905b81548152906001019060200180831161136b57829003601f168201915b5050505060068301805460408051602060026001851615610100026000190190941693909304601f81018490048402820184019092528181529495949350908301828280156114185780601f106113ed57610100808354040283529160200191611418565b820191906000526020600020905b8154815290600101906020018083116113fb57829003601f168201915b5050505050908060070154908060080154905089565b60008054600190810180835560408051610120810182523381526020808201848152828401878152606084018c8152608085018c905260a085018b905260c085018a905260e0850189905261010085018990529588528683529390962082518154600160a060020a031916600160a060020a0390911617815595519486019490945590516002850155905180519193926114d092600385019290910190611b5c565b50608082015180516114ec916004840191602090910190611b5c565b5060a08201518051611508916005840191602090910190611b5c565b5060c08201518051611524916006840191602090910190611b5c565b5060e0820151816007015561010082015181600801559050507fd7189338f4cec219c5f04fecc21e619024b255cae0f19269f0b827547f16dbd63360005460008787878760006040518089600160a060020a0316600160a060020a031681526020018881526020018781526020018060200180602001806020018060200186815260200185810385528a818151815260200191508051906020019080838360005b838110156115dd5781810151838201526020016115c5565b50505050905090810190601f16801561160a5780820380516001836020036101000a031916815260200191505b5085810384528951815289516020918201918b019080838360005b8381101561163d578181015183820152602001611625565b50505050905090810190601f16801561166a5780820380516001836020036101000a031916815260200191505b5085810383528851815288516020918201918a019080838360005b8381101561169d578181015183820152602001611685565b50505050905090810190601f1680156116ca5780820380516001836020036101000a031916815260200191505b50858103825287518152875160209182019189019080838360005b838110156116fd5781810151838201526020016116e5565b50505050905090810190601f16801561172a5780820380516001836020036101000a031916815260200191505b509c5050505050505050505050505060405180910390a150505050565b61174f611c4f565b6000828152600160208181526040928390208351610120810185528154600160a060020a0316815281840154818401526002808301548287015260038301805487516101009782161597909702600019011691909104601f81018590048502860185019096528585529094919360608601939092908301828280156118155780601f106117ea57610100808354040283529160200191611815565b820191906000526020600020905b8154815290600101906020018083116117f857829003601f168201915b505050918352505060048201805460408051602060026001851615610100026000190190941693909304601f81018490048402820184019092528181529382019392918301828280156118a95780601f1061187e576101008083540402835291602001916118a9565b820191906000526020600020905b81548152906001019060200180831161188c57829003601f168201915b505050918352505060058201805460408051602060026001851615610100026000190190941693909304601f810184900484028201840190925281815293820193929183018282801561193d5780601f106119125761010080835404028352916020019161193d565b820191906000526020600020905b81548152906001019060200180831161192057829003601f168201915b505050918352505060068201805460408051602060026001851615610100026000190190941693909304601f81018490048402820184019092528181529382019392918301828280156119d15780601f106119a6576101008083540402835291602001916119d1565b820191906000526020600020905b8154815290600101906020018083116119b457829003601f168201915b5050509183525050600782015460208201526008909101546040909101528051909150600160a060020a03163314611a79576040805160e560020a62461bcd02815260206004820152602360248201527f43616c6c6572206973206e6f742074686520636f6e74657374206f7267616e6960448201527f7a65720000000000000000000000000000000000000000000000000000000000606482015290519081900360840190fd5b6040810151600114611afb576040805160e560020a62461bcd02815260206004820152602a60248201527f54686520636f6e746573742068617320746f20626520696e2074686520696e6960448201527f7469616c20737461676500000000000000000000000000000000000000000000606482015290519081900360840190fd5b600260408281018281526000858152600160208181529390912085518154600160a060020a031916600160a060020a03909116178155838601519181019190915590519281019290925560608301518051849392610cf59260038501929101905b828054600181600116156101000203166002900490600052602060002090601f016020900481019282601f10611b9d57805160ff1916838001178555611bca565b82800160010185558215611bca579182015b82811115611bca578251825591602001919060010190611baf565b50611bd6929150611cd9565b5090565b828054600181600116156101000203166002900490600052602060002090601f016020900481019282601f10611c135780548555611bca565b82800160010185558215611bca57600052602060002091601f016020900482015b82811115611bca578254825591600101919060010190611c34565b610120604051908101604052806000600160a060020a0316815260200160008152602001600081526020016060815260200160608152602001606081526020016060815260200160008152602001600081525090565b608060405190810160405280600081526020016000600160a060020a03168152602001606081526020016000151581525090565b611cf391905b80821115611bd65760008155600101611cdf565b9056fea165627a7a72305820895626acb08702be6f7c058355d337106e4f507c46f46ea6f4a13d8e164335470029",
  "source": "pragma solidity ^0.5.0;\n\ncontract ContestApp {\n    uint public contestCount = 0;\n\n    struct Contestant{\n        uint id;\n        address contestant_address;\n        string name;\n        bool is_winner;\n    }\n\n    struct Contest{\n        address contest_organizer;\n        uint id;\n        uint stage; //0: Contest to be set, 1: Ongoing, 2: Resolution statge, 3: Finished\n        string basis;\n        string deadline;\n        string resolution_deadline;\n        string award;\n        uint contestantsCount;\n        uint winner_id;\n        mapping(uint => Contestant) contestants;\n    }\n\n    mapping(uint => Contest) public contests;\n\n    event ContestCreated(\n        address contest_organizer,\n        uint id,\n        uint stage, //0: Contest to be set, 1: Ongoing, 2: Judge statge, 3: Finished\n        string basis,\n        string deadline,\n        string resolution_deadline,\n        string award,\n        uint contestantsCount\n    );\n\n    event stageUpdated(\n        uint id,\n        uint stage\n    );\n\n    event winnerSet(\n        uint id,\n        uint stage,\n        string winner_name\n\n    );\n\n    event newContestant(\n        uint id,\n        string contestant_name\n    );\n\n    function createContest(string memory _basis, string memory _deadline, string memory _resolution_deadline, string memory _award) public {\n        contestCount ++;\n        contests[contestCount] = Contest(msg.sender, contestCount, 0, _basis, _deadline, _resolution_deadline, _award, 0, 0);\n        emit ContestCreated(msg.sender, contestCount, 0, _basis, _deadline, _resolution_deadline, _award, 0);\n    }\n\n    function setContestOngioing(uint _id) public {\n        Contest memory _contest = contests[_id];\n        require(msg.sender == _contest.contest_organizer, \"Caller is not the contest organizer\");\n        require(_contest.stage == 0, \"The contest has to be in the initial stage\");\n        _contest.stage = 1;\n        contests[_id] = _contest;\n        emit stageUpdated(_id, _contest.stage);\n    }\n\n    function setContestJudgeStage(uint _id) public {\n        Contest memory _contest = contests[_id];\n        require(msg.sender == _contest.contest_organizer, \"Caller is not the contest organizer\");\n        require(_contest.stage == 1, \"The contest has to be in the initial stage\");\n        _contest.stage = 2;\n        contests[_id] = _contest;\n        emit stageUpdated(_id, _contest.stage);\n    }\n\n    function setWinner(uint _id, uint _winner_id) public {\n        Contest storage _contest = contests[_id];\n        Contestant memory _winner_contestant = _contest.contestants[_winner_id];\n        require(msg.sender == _contest.contest_organizer, \"Caller is not the contest organizer\");\n        require(_contest.stage == 2, \"The contest has to be ongoing\");\n        _contest.winner_id = _winner_id;\n        _contest.stage = 3;\n        _winner_contestant.is_winner = true;\n        _contest.contestants[_winner_id] = _winner_contestant;\n        contests[_id] = _contest;\n        emit winnerSet(_id, _contest.stage, _winner_contestant.name);\n    }\n\n    function participate(uint _id, string memory _name) public {\n        Contest storage _contest = contests[_id];\n        require(_contest.stage == 1, \"The contest has to be ongoing\");\n        _contest.contestantsCount ++;\n        _contest.contestants[_contest.contestantsCount] = Contestant(_contest.contestantsCount, msg.sender, _name, false);\n        contests[_id] = _contest;\n        emit newContestant(_id, _name);\n    }\n}",
  "sourcePath": "/Users/marvidalsegura/Desktop/DS-Project/contracts/ContestApp.sol",
  "compiler": {
    "name": "solc",
    "version": "0.5.0+commit.1d4f565a.Emscripten.clang"
  },
  "schemaVersion": "3.0.1",
  "updatedAt": "2020-05-18T22:07:20.942Z",
  "devdoc": {
    "methods": {}
  },
  "userdoc": {
    "methods": {}
  }
}